{
  "_format": "hh-sol-artifact-1",
  "contractName": "MyEpicNFT",
  "sourceName": "contracts/MyEpicNFT.sol",
  "abi": [
    {
      "inputs": [],
      "stateMutability": "nonpayable",
      "type": "constructor"
    },
    {
      "anonymous": false,
      "inputs": [
        {
          "indexed": true,
          "internalType": "address",
          "name": "owner",
          "type": "address"
        },
        {
          "indexed": true,
          "internalType": "address",
          "name": "approved",
          "type": "address"
        },
        {
          "indexed": true,
          "internalType": "uint256",
          "name": "tokenId",
          "type": "uint256"
        }
      ],
      "name": "Approval",
      "type": "event"
    },
    {
      "anonymous": false,
      "inputs": [
        {
          "indexed": true,
          "internalType": "address",
          "name": "owner",
          "type": "address"
        },
        {
          "indexed": true,
          "internalType": "address",
          "name": "operator",
          "type": "address"
        },
        {
          "indexed": false,
          "internalType": "bool",
          "name": "approved",
          "type": "bool"
        }
      ],
      "name": "ApprovalForAll",
      "type": "event"
    },
    {
      "anonymous": false,
      "inputs": [
        {
          "indexed": true,
          "internalType": "address",
          "name": "from",
          "type": "address"
        },
        {
          "indexed": true,
          "internalType": "address",
          "name": "to",
          "type": "address"
        },
        {
          "indexed": true,
          "internalType": "uint256",
          "name": "tokenId",
          "type": "uint256"
        }
      ],
      "name": "Transfer",
      "type": "event"
    },
    {
      "inputs": [
        {
          "internalType": "address",
          "name": "to",
          "type": "address"
        },
        {
          "internalType": "uint256",
          "name": "tokenId",
          "type": "uint256"
        }
      ],
      "name": "approve",
      "outputs": [],
      "stateMutability": "nonpayable",
      "type": "function"
    },
    {
      "inputs": [
        {
          "internalType": "address",
          "name": "owner",
          "type": "address"
        }
      ],
      "name": "balanceOf",
      "outputs": [
        {
          "internalType": "uint256",
          "name": "",
          "type": "uint256"
        }
      ],
      "stateMutability": "view",
      "type": "function"
    },
    {
      "inputs": [
        {
          "internalType": "uint256",
          "name": "tokenId",
          "type": "uint256"
        }
      ],
      "name": "getApproved",
      "outputs": [
        {
          "internalType": "address",
          "name": "",
          "type": "address"
        }
      ],
      "stateMutability": "view",
      "type": "function"
    },
    {
      "inputs": [
        {
          "internalType": "address",
          "name": "owner",
          "type": "address"
        },
        {
          "internalType": "address",
          "name": "operator",
          "type": "address"
        }
      ],
      "name": "isApprovedForAll",
      "outputs": [
        {
          "internalType": "bool",
          "name": "",
          "type": "bool"
        }
      ],
      "stateMutability": "view",
      "type": "function"
    },
    {
      "inputs": [],
      "name": "makeEpicNFT",
      "outputs": [],
      "stateMutability": "nonpayable",
      "type": "function"
    },
    {
      "inputs": [],
      "name": "name",
      "outputs": [
        {
          "internalType": "string",
          "name": "",
          "type": "string"
        }
      ],
      "stateMutability": "view",
      "type": "function"
    },
    {
      "inputs": [
        {
          "internalType": "uint256",
          "name": "tokenId",
          "type": "uint256"
        }
      ],
      "name": "ownerOf",
      "outputs": [
        {
          "internalType": "address",
          "name": "",
          "type": "address"
        }
      ],
      "stateMutability": "view",
      "type": "function"
    },
    {
      "inputs": [
        {
          "internalType": "uint256",
          "name": "tokenId",
          "type": "uint256"
        },
        {
          "internalType": "string",
          "name": "order",
          "type": "string"
        }
      ],
      "name": "pickRandom",
      "outputs": [
        {
          "internalType": "string",
          "name": "",
          "type": "string"
        }
      ],
      "stateMutability": "view",
      "type": "function"
    },
    {
      "inputs": [
        {
          "internalType": "address",
          "name": "from",
          "type": "address"
        },
        {
          "internalType": "address",
          "name": "to",
          "type": "address"
        },
        {
          "internalType": "uint256",
          "name": "tokenId",
          "type": "uint256"
        }
      ],
      "name": "safeTransferFrom",
      "outputs": [],
      "stateMutability": "nonpayable",
      "type": "function"
    },
    {
      "inputs": [
        {
          "internalType": "address",
          "name": "from",
          "type": "address"
        },
        {
          "internalType": "address",
          "name": "to",
          "type": "address"
        },
        {
          "internalType": "uint256",
          "name": "tokenId",
          "type": "uint256"
        },
        {
          "internalType": "bytes",
          "name": "_data",
          "type": "bytes"
        }
      ],
      "name": "safeTransferFrom",
      "outputs": [],
      "stateMutability": "nonpayable",
      "type": "function"
    },
    {
      "inputs": [
        {
          "internalType": "address",
          "name": "operator",
          "type": "address"
        },
        {
          "internalType": "bool",
          "name": "approved",
          "type": "bool"
        }
      ],
      "name": "setApprovalForAll",
      "outputs": [],
      "stateMutability": "nonpayable",
      "type": "function"
    },
    {
      "inputs": [
        {
          "internalType": "bytes4",
          "name": "interfaceId",
          "type": "bytes4"
        }
      ],
      "name": "supportsInterface",
      "outputs": [
        {
          "internalType": "bool",
          "name": "",
          "type": "bool"
        }
      ],
      "stateMutability": "view",
      "type": "function"
    },
    {
      "inputs": [],
      "name": "symbol",
      "outputs": [
        {
          "internalType": "string",
          "name": "",
          "type": "string"
        }
      ],
      "stateMutability": "view",
      "type": "function"
    },
    {
      "inputs": [
        {
          "internalType": "uint256",
          "name": "tokenId",
          "type": "uint256"
        }
      ],
      "name": "tokenURI",
      "outputs": [
        {
          "internalType": "string",
          "name": "",
          "type": "string"
        }
      ],
      "stateMutability": "view",
      "type": "function"
    },
    {
      "inputs": [
        {
          "internalType": "address",
          "name": "from",
          "type": "address"
        },
        {
          "internalType": "address",
          "name": "to",
          "type": "address"
        },
        {
          "internalType": "uint256",
          "name": "tokenId",
          "type": "uint256"
        }
      ],
      "name": "transferFrom",
      "outputs": [],
      "stateMutability": "nonpayable",
      "type": "function"
    }
  ],
  "bytecode": "0x608060405260405180610160016040528061012f81526020016200456e61012f913960089080519060200190620000389291906200072f565b506040518060e001604052806040518060400160405280600681526020017f746163697420000000000000000000000000000000000000000000000000000081525081526020016040518060400160405280600881526020017f6e6f6e73746f702000000000000000000000000000000000000000000000000081525081526020016040518060400160405280600c81526020017f6173746f6e697368696e6720000000000000000000000000000000000000000081525081526020016040518060400160405280600981526020017f64696c6967656e7420000000000000000000000000000000000000000000000081525081526020016040518060400160405280600781526020017f696e73757265200000000000000000000000000000000000000000000000000081525081526020016040518060400160405280600681526020017f636869646520000000000000000000000000000000000000000000000000000081525081526020016040518060400160405280600481526020017f696c6c20000000000000000000000000000000000000000000000000000000008152508152506009906007620001f1929190620007c0565b506040518060e001604052806040518060400160405280600a81526020017f646973677573746564200000000000000000000000000000000000000000000081525081526020016040518060400160405280600581526020017f636f61742000000000000000000000000000000000000000000000000000000081525081526020016040518060400160405280600681526020017f676162627920000000000000000000000000000000000000000000000000000081525081526020016040518060400160405280600681526020017f726574636820000000000000000000000000000000000000000000000000000081525081526020016040518060400160405280600781526020017f62656c696566200000000000000000000000000000000000000000000000000081525081526020016040518060400160405280600681526020017f736e65616b20000000000000000000000000000000000000000000000000000081525081526020016040518060400160405280600981526020017f6275696c64696e67200000000000000000000000000000000000000000000000815250815250600a906007620003aa929190620007c0565b506040518060e001604052806040518060400160405280600681526020017f686172626f72000000000000000000000000000000000000000000000000000081525081526020016040518060400160405280600581526020017f796f756e6700000000000000000000000000000000000000000000000000000081525081526020016040518060400160405280600781526020017f737572706173730000000000000000000000000000000000000000000000000081525081526020016040518060400160405280600881526020017f7661636174696f6e00000000000000000000000000000000000000000000000081525081526020016040518060400160405280600881526020017f7265616374696f6e00000000000000000000000000000000000000000000000081525081526020016040518060400160405280600881526020017f64657461696c656400000000000000000000000000000000000000000000000081525081526020016040518060400160405280600481526020017f6c696d7000000000000000000000000000000000000000000000000000000000815250815250600b90600762000563929190620007c0565b503480156200057157600080fd5b506040518060400160405280600881526020017f4e465420746573740000000000000000000000000000000000000000000000008152506040518060400160405280600381526020017f53454100000000000000000000000000000000000000000000000000000000008152508160009080519060200190620005f69291906200072f565b5080600190805190602001906200060f9291906200072f565b5050506200065d6040518060400160405280601381526020017f4d79457069634e465420436f6e747261637421000000000000000000000000008152506200066360201b620011851760201c565b620009e1565b62000703816040516024016200067a9190620008f5565b6040516020818303038152906040527f41304fac000000000000000000000000000000000000000000000000000000007bffffffffffffffffffffffffffffffffffffffffffffffffffffffff19166020820180517bffffffffffffffffffffffffffffffffffffffffffffffffffffffff83818316178352505050506200070660201b60201c565b50565b60008151905060006a636f6e736f6c652e6c6f679050602083016000808483855afa5050505050565b8280546200073d906200096b565b90600052602060002090601f016020900481019282620007615760008555620007ad565b82601f106200077c57805160ff1916838001178555620007ad565b82800160010185558215620007ad579182015b82811115620007ac5782518255916020019190600101906200078f565b5b509050620007bc919062000827565b5090565b82805482825590600052602060002090810192821562000814579160200282015b8281111562000813578251829080519060200190620008029291906200072f565b5091602001919060010190620007e1565b5b50905062000823919062000846565b5090565b5b808211156200084257600081600090555060010162000828565b5090565b5b808211156200086a57600081816200086091906200086e565b5060010162000847565b5090565b5080546200087c906200096b565b6000825580601f10620008905750620008b1565b601f016020900490600052602060002090810190620008b0919062000827565b5b50565b6000620008c18262000919565b620008cd818562000924565b9350620008df81856020860162000935565b620008ea81620009d0565b840191505092915050565b60006020820190508181036000830152620009118184620008b4565b905092915050565b600081519050919050565b600082825260208201905092915050565b60005b838110156200095557808201518184015260208101905062000938565b8381111562000965576000848401525b50505050565b600060028204905060018216806200098457607f821691505b602082108114156200099b576200099a620009a1565b5b50919050565b7f4e487b7100000000000000000000000000000000000000000000000000000000600052602260045260246000fd5b6000601f19601f8301169050919050565b613b7d80620009f16000396000f3fe608060405234801561001057600080fd5b50600436106100f55760003560e01c806362b41f4911610097578063a22cb46511610066578063a22cb46514610284578063b88d4fde146102a0578063c87b56dd146102bc578063e985e9c5146102ec576100f5565b806362b41f49146101fc5780636352211e1461020657806370a082311461023657806395d89b4114610266576100f5565b8063095ea7b3116100d3578063095ea7b31461017857806311f256891461019457806323b872dd146101c457806342842e0e146101e0576100f5565b806301ffc9a7146100fa57806306fdde031461012a578063081812fc14610148575b600080fd5b610114600480360381019061010f9190612619565b61031c565b6040516101219190612d86565b60405180910390f35b6101326103fe565b60405161013f9190612da1565b60405180910390f35b610162600480360381019061015d919061266b565b610490565b60405161016f9190612d1f565b60405180910390f35b610192600480360381019061018d91906125dd565b610515565b005b6101ae60048036038101906101a99190612694565b61062d565b6040516101bb9190612da1565b60405180910390f35b6101de60048036038101906101d991906124d7565b610a1b565b005b6101fa60048036038101906101f591906124d7565b610a7b565b005b610204610a9b565b005b610220600480360381019061021b919061266b565b610d2b565b60405161022d9190612d1f565b60405180910390f35b610250600480360381019061024b9190612472565b610ddd565b60405161025d9190613001565b60405180910390f35b61026e610e95565b60405161027b9190612da1565b60405180910390f35b61029e600480360381019061029991906125a1565b610f27565b005b6102ba60048036038101906102b59190612526565b610f3d565b005b6102d660048036038101906102d1919061266b565b610f9f565b6040516102e39190612da1565b60405180910390f35b6103066004803603810190610301919061249b565b6110f1565b6040516103139190612d86565b60405180910390f35b60007f80ac58cd000000000000000000000000000000000000000000000000000000007bffffffffffffffffffffffffffffffffffffffffffffffffffffffff1916827bffffffffffffffffffffffffffffffffffffffffffffffffffffffff191614806103e757507f5b5e139f000000000000000000000000000000000000000000000000000000007bffffffffffffffffffffffffffffffffffffffffffffffffffffffff1916827bffffffffffffffffffffffffffffffffffffffffffffffffffffffff1916145b806103f757506103f68261121e565b5b9050919050565b60606000805461040d906132c6565b80601f0160208091040260200160405190810160405280929190818152602001828054610439906132c6565b80156104865780601f1061045b57610100808354040283529160200191610486565b820191906000526020600020905b81548152906001019060200180831161046957829003601f168201915b5050505050905090565b600061049b82611288565b6104da576040517f08c379a00000000000000000000000000000000000000000000000000000000081526004016104d190612f81565b60405180910390fd5b6004600083815260200190815260200160002060009054906101000a900473ffffffffffffffffffffffffffffffffffffffff169050919050565b600061052082610d2b565b90508073ffffffffffffffffffffffffffffffffffffffff168373ffffffffffffffffffffffffffffffffffffffff161415610591576040517f08c379a000000000000000000000000000000000000000000000000000000000815260040161058890612fc1565b60405180910390fd5b8073ffffffffffffffffffffffffffffffffffffffff166105b06112f4565b73ffffffffffffffffffffffffffffffffffffffff1614806105df57506105de816105d96112f4565b6110f1565b5b61061e576040517f08c379a000000000000000000000000000000000000000000000000000000000815260040161061590612ec1565b60405180910390fd5b61062883836112fc565b505050565b606060006106638361063e866113b5565b60405160200161064f929190612bb9565b604051602081830303815290604052611562565b905060405160200161067490612cbe565b604051602081830303815290604052805190602001208360405160200161069b9190612ba2565b60405160208183030381529060405280519060200120141561079f57600980549050816106c89190613372565b905060098181548110610704577f4e487b7100000000000000000000000000000000000000000000000000000000600052603260045260246000fd5b906000526020600020018054610719906132c6565b80601f0160208091040260200160405190810160405280929190818152602001828054610745906132c6565b80156107925780601f1061076757610100808354040283529160200191610792565b820191906000526020600020905b81548152906001019060200180831161077557829003601f168201915b5050505050915050610a15565b6040516020016107ae90612cd3565b60405160208183030381529060405280519060200120836040516020016107d59190612ba2565b6040516020818303038152906040528051906020012014156108d957600a80549050816108029190613372565b9050600a818154811061083e577f4e487b7100000000000000000000000000000000000000000000000000000000600052603260045260246000fd5b906000526020600020018054610853906132c6565b80601f016020809104026020016040519081016040528092919081815260200182805461087f906132c6565b80156108cc5780601f106108a1576101008083540402835291602001916108cc565b820191906000526020600020905b8154815290600101906020018083116108af57829003601f168201915b5050505050915050610a15565b6040516020016108e890612ce8565b604051602081830303815290604052805190602001208360405160200161090f9190612ba2565b604051602081830303815290604052805190602001201415610a1357600b805490508161093c9190613372565b9050600b8181548110610978577f4e487b7100000000000000000000000000000000000000000000000000000000600052603260045260246000fd5b90600052602060002001805461098d906132c6565b80601f01602080910402602001604051908101604052809291908181526020018280546109b9906132c6565b8015610a065780601f106109db57610100808354040283529160200191610a06565b820191906000526020600020905b8154815290600101906020018083116109e957829003601f168201915b5050505050915050610a15565b505b92915050565b610a2c610a266112f4565b82611595565b610a6b576040517f08c379a0000000000000000000000000000000000000000000000000000000008152600401610a6290612fe1565b60405180910390fd5b610a76838383611673565b505050565b610a9683838360405180602001604052806000815250610f3d565b505050565b6000610aa760076118da565b90506000610aea826040518060400160405280600581526020017f464952535400000000000000000000000000000000000000000000000000000081525061062d565b90506000610b2d836040518060400160405280600681526020017f5345434f4e44000000000000000000000000000000000000000000000000000081525061062d565b90506000610b70846040518060400160405280600681526020017f544849524544000000000000000000000000000000000000000000000000000081525061062d565b90506000838383604051602001610b8993929190612bdd565b604051602081830303815290604052905060006008858585604051602001610bb49493929190612c0e565b60405160208183030381529060405290506000610bf983610bd4846118e8565b604051602001610be5929190612c79565b6040516020818303038152906040526118e8565b9050600081604051602001610c0e9190612cfd565b6040516020818303038152906040529050610c5d6040518060400160405280602081526020017f0a2d2d2d2d2d2d2d2d2d2d2d2d2d2d2d2d2d2d2d2d2d2d2d2d2d2d2d2d2d2d2d815250611185565b610c8581604051602001610c719190612c57565b604051602081830303815290604052611185565b610cc36040518060400160405280602081526020017f2d2d2d2d2d2d2d2d2d2d2d2d2d2d2d2d2d2d2d2d2d2d2d2d2d2d2d2d2d2d2d0a815250611185565b610ccd3389611aa6565b610cd78882611ac4565b610ce16007611b38565b610d216040518060400160405280601d81526020017f4e465423257320574153204352454154454420574954482040402025730000008152508933611b4e565b5050505050505050565b6000806002600084815260200190815260200160002060009054906101000a900473ffffffffffffffffffffffffffffffffffffffff169050600073ffffffffffffffffffffffffffffffffffffffff168173ffffffffffffffffffffffffffffffffffffffff161415610dd4576040517f08c379a0000000000000000000000000000000000000000000000000000000008152600401610dcb90612f01565b60405180910390fd5b80915050919050565b60008073ffffffffffffffffffffffffffffffffffffffff168273ffffffffffffffffffffffffffffffffffffffff161415610e4e576040517f08c379a0000000000000000000000000000000000000000000000000000000008152600401610e4590612ee1565b60405180910390fd5b600360008373ffffffffffffffffffffffffffffffffffffffff1673ffffffffffffffffffffffffffffffffffffffff168152602001908152602001600020549050919050565b606060018054610ea4906132c6565b80601f0160208091040260200160405190810160405280929190818152602001828054610ed0906132c6565b8015610f1d5780601f10610ef257610100808354040283529160200191610f1d565b820191906000526020600020905b815481529060010190602001808311610f0057829003601f168201915b5050505050905090565b610f39610f326112f4565b8383611bed565b5050565b610f4e610f486112f4565b83611595565b610f8d576040517f08c379a0000000000000000000000000000000000000000000000000000000008152600401610f8490612fe1565b60405180910390fd5b610f9984848484611d5a565b50505050565b6060610faa82611288565b610fe9576040517f08c379a0000000000000000000000000000000000000000000000000000000008152600401610fe090612f61565b60405180910390fd5b6000600660008481526020019081526020016000208054611009906132c6565b80601f0160208091040260200160405190810160405280929190818152602001828054611035906132c6565b80156110825780601f1061105757610100808354040283529160200191611082565b820191906000526020600020905b81548152906001019060200180831161106557829003601f168201915b505050505090506000611093611db6565b90506000815114156110a95781925050506110ec565b6000825111156110de5780826040516020016110c6929190612bb9565b604051602081830303815290604052925050506110ec565b6110e784611dcd565b925050505b919050565b6000600560008473ffffffffffffffffffffffffffffffffffffffff1673ffffffffffffffffffffffffffffffffffffffff16815260200190815260200160002060008373ffffffffffffffffffffffffffffffffffffffff1673ffffffffffffffffffffffffffffffffffffffff16815260200190815260200160002060009054906101000a900460ff16905092915050565b61121b816040516024016111999190612da1565b6040516020818303038152906040527f41304fac000000000000000000000000000000000000000000000000000000007bffffffffffffffffffffffffffffffffffffffffffffffffffffffff19166020820180517bffffffffffffffffffffffffffffffffffffffffffffffffffffffff8381831617835250505050611e74565b50565b60007f01ffc9a7000000000000000000000000000000000000000000000000000000007bffffffffffffffffffffffffffffffffffffffffffffffffffffffff1916827bffffffffffffffffffffffffffffffffffffffffffffffffffffffff1916149050919050565b60008073ffffffffffffffffffffffffffffffffffffffff166002600084815260200190815260200160002060009054906101000a900473ffffffffffffffffffffffffffffffffffffffff1673ffffffffffffffffffffffffffffffffffffffff1614159050919050565b600033905090565b816004600083815260200190815260200160002060006101000a81548173ffffffffffffffffffffffffffffffffffffffff021916908373ffffffffffffffffffffffffffffffffffffffff160217905550808273ffffffffffffffffffffffffffffffffffffffff1661136f83610d2b565b73ffffffffffffffffffffffffffffffffffffffff167f8c5be1e5ebec7d5bd14f71427d1e84f3dd0314c0f7b2291e5b200ac8c7c3b92560405160405180910390a45050565b606060008214156113fd576040518060400160405280600181526020017f3000000000000000000000000000000000000000000000000000000000000000815250905061155d565b600082905060005b6000821461142f57808061141890613329565b915050600a826114289190613151565b9150611405565b60008167ffffffffffffffff811115611471577f4e487b7100000000000000000000000000000000000000000000000000000000600052604160045260246000fd5b6040519080825280601f01601f1916602001820160405280156114a35781602001600182028036833780820191505090505b5090505b60008514611556576001826114bc91906131dc565b9150600a856114cb9190613372565b60306114d791906130fb565b60f81b818381518110611513577f4e487b7100000000000000000000000000000000000000000000000000000000600052603260045260246000fd5b60200101907effffffffffffffffffffffffffffffffffffffffffffffffffffffffffffff1916908160001a905350600a8561154f9190613151565b94506114a7565b8093505050505b919050565b6000816040516020016115759190612ba2565b6040516020818303038152906040528051906020012060001c9050919050565b60006115a082611288565b6115df576040517f08c379a00000000000000000000000000000000000000000000000000000000081526004016115d690612ea1565b60405180910390fd5b60006115ea83610d2b565b90508073ffffffffffffffffffffffffffffffffffffffff168473ffffffffffffffffffffffffffffffffffffffff16148061162c575061162b81856110f1565b5b8061166a57508373ffffffffffffffffffffffffffffffffffffffff1661165284610490565b73ffffffffffffffffffffffffffffffffffffffff16145b91505092915050565b8273ffffffffffffffffffffffffffffffffffffffff1661169382610d2b565b73ffffffffffffffffffffffffffffffffffffffff16146116e9576040517f08c379a00000000000000000000000000000000000000000000000000000000081526004016116e090612e21565b60405180910390fd5b600073ffffffffffffffffffffffffffffffffffffffff168273ffffffffffffffffffffffffffffffffffffffff161415611759576040517f08c379a000000000000000000000000000000000000000000000000000000000815260040161175090612e61565b60405180910390fd5b611764838383611e9d565b61176f6000826112fc565b6001600360008573ffffffffffffffffffffffffffffffffffffffff1673ffffffffffffffffffffffffffffffffffffffff16815260200190815260200160002060008282546117bf91906131dc565b925050819055506001600360008473ffffffffffffffffffffffffffffffffffffffff1673ffffffffffffffffffffffffffffffffffffffff168152602001908152602001600020600082825461181691906130fb565b92505081905550816002600083815260200190815260200160002060006101000a81548173ffffffffffffffffffffffffffffffffffffffff021916908373ffffffffffffffffffffffffffffffffffffffff160217905550808273ffffffffffffffffffffffffffffffffffffffff168473ffffffffffffffffffffffffffffffffffffffff167fddf252ad1be2c89b69c2b068fc378daa952ba7f163c4a11628f55a4df523b3ef60405160405180910390a46118d5838383611ea2565b505050565b600081600001549050919050565b606060008251905060008114156119115760405180602001604052806000815250915050611aa1565b6000600360028361192291906130fb565b61192c9190613151565b60046119389190613182565b9050600060208261194991906130fb565b67ffffffffffffffff811115611988577f4e487b7100000000000000000000000000000000000000000000000000000000600052604160045260246000fd5b6040519080825280601f01601f1916602001820160405280156119ba5781602001600182028036833780820191505090505b5090506000604051806060016040528060408152602001613b08604091399050600181016020830160005b86811015611a5e5760038101905062ffffff818a015116603f8160121c168401518060081b905060ff603f83600c1c1686015116810190508060081b905060ff603f8360061c1686015116810190508060081b905060ff603f831686015116810190508060e01b905080845260048401935050506119e5565b506003860660018114611a785760028114611a8857611a93565b613d3d60f01b6002830352611a93565b603d60f81b60018303525b508484525050819450505050505b919050565b611ac0828260405180602001604052806000815250611ea7565b5050565b611acd82611288565b611b0c576040517f08c379a0000000000000000000000000000000000000000000000000000000008152600401611b0390612f21565b60405180910390fd5b80600660008481526020019081526020016000209080519060200190611b33929190612296565b505050565b6001816000016000828254019250508190555050565b611be8838383604051602401611b6693929190612dc3565b6040516020818303038152906040527fe3849f79000000000000000000000000000000000000000000000000000000007bffffffffffffffffffffffffffffffffffffffffffffffffffffffff19166020820180517bffffffffffffffffffffffffffffffffffffffffffffffffffffffff8381831617835250505050611e74565b505050565b8173ffffffffffffffffffffffffffffffffffffffff168373ffffffffffffffffffffffffffffffffffffffff161415611c5c576040517f08c379a0000000000000000000000000000000000000000000000000000000008152600401611c5390612e81565b60405180910390fd5b80600560008573ffffffffffffffffffffffffffffffffffffffff1673ffffffffffffffffffffffffffffffffffffffff16815260200190815260200160002060008473ffffffffffffffffffffffffffffffffffffffff1673ffffffffffffffffffffffffffffffffffffffff16815260200190815260200160002060006101000a81548160ff0219169083151502179055508173ffffffffffffffffffffffffffffffffffffffff168373ffffffffffffffffffffffffffffffffffffffff167f17307eab39ab6107e8899845ad3d59bd9653f200f220920489ca2b5937696c3183604051611d4d9190612d86565b60405180910390a3505050565b611d65848484611673565b611d7184848484611f02565b611db0576040517f08c379a0000000000000000000000000000000000000000000000000000000008152600401611da790612e01565b60405180910390fd5b50505050565b606060405180602001604052806000815250905090565b6060611dd882611288565b611e17576040517f08c379a0000000000000000000000000000000000000000000000000000000008152600401611e0e90612fa1565b60405180910390fd5b6000611e21611db6565b90506000815111611e415760405180602001604052806000815250611e6c565b80611e4b846113b5565b604051602001611e5c929190612bb9565b6040516020818303038152906040525b915050919050565b60008151905060006a636f6e736f6c652e6c6f679050602083016000808483855afa5050505050565b505050565b505050565b611eb18383612099565b611ebe6000848484611f02565b611efd576040517f08c379a0000000000000000000000000000000000000000000000000000000008152600401611ef490612e01565b60405180910390fd5b505050565b6000611f238473ffffffffffffffffffffffffffffffffffffffff16612273565b1561208c578373ffffffffffffffffffffffffffffffffffffffff1663150b7a02611f4c6112f4565b8786866040518563ffffffff1660e01b8152600401611f6e9493929190612d3a565b602060405180830381600087803b158015611f8857600080fd5b505af1925050508015611fb957506040513d601f19601f82011682018060405250810190611fb69190612642565b60015b61203c573d8060008114611fe9576040519150601f19603f3d011682016040523d82523d6000602084013e611fee565b606091505b50600081511415612034576040517f08c379a000000000000000000000000000000000000000000000000000000000815260040161202b90612e01565b60405180910390fd5b805181602001fd5b63150b7a0260e01b7bffffffffffffffffffffffffffffffffffffffffffffffffffffffff1916817bffffffffffffffffffffffffffffffffffffffffffffffffffffffff191614915050612091565b600190505b949350505050565b600073ffffffffffffffffffffffffffffffffffffffff168273ffffffffffffffffffffffffffffffffffffffff161415612109576040517f08c379a000000000000000000000000000000000000000000000000000000000815260040161210090612f41565b60405180910390fd5b61211281611288565b15612152576040517f08c379a000000000000000000000000000000000000000000000000000000000815260040161214990612e41565b60405180910390fd5b61215e60008383611e9d565b6001600360008473ffffffffffffffffffffffffffffffffffffffff1673ffffffffffffffffffffffffffffffffffffffff16815260200190815260200160002060008282546121ae91906130fb565b92505081905550816002600083815260200190815260200160002060006101000a81548173ffffffffffffffffffffffffffffffffffffffff021916908373ffffffffffffffffffffffffffffffffffffffff160217905550808273ffffffffffffffffffffffffffffffffffffffff16600073ffffffffffffffffffffffffffffffffffffffff167fddf252ad1be2c89b69c2b068fc378daa952ba7f163c4a11628f55a4df523b3ef60405160405180910390a461226f60008383611ea2565b5050565b6000808273ffffffffffffffffffffffffffffffffffffffff163b119050919050565b8280546122a2906132c6565b90600052602060002090601f0160209004810192826122c4576000855561230b565b82601f106122dd57805160ff191683800117855561230b565b8280016001018555821561230b579182015b8281111561230a5782518255916020019190600101906122ef565b5b509050612318919061231c565b5090565b5b8082111561233557600081600090555060010161231d565b5090565b600061234c61234784613041565b61301c565b90508281526020810184848401111561236457600080fd5b61236f848285613284565b509392505050565b600061238a61238584613072565b61301c565b9050828152602081018484840111156123a257600080fd5b6123ad848285613284565b509392505050565b6000813590506123c481613aab565b92915050565b6000813590506123d981613ac2565b92915050565b6000813590506123ee81613ad9565b92915050565b60008151905061240381613ad9565b92915050565b600082601f83011261241a57600080fd5b813561242a848260208601612339565b91505092915050565b600082601f83011261244457600080fd5b8135612454848260208601612377565b91505092915050565b60008135905061246c81613af0565b92915050565b60006020828403121561248457600080fd5b6000612492848285016123b5565b91505092915050565b600080604083850312156124ae57600080fd5b60006124bc858286016123b5565b92505060206124cd858286016123b5565b9150509250929050565b6000806000606084860312156124ec57600080fd5b60006124fa868287016123b5565b935050602061250b868287016123b5565b925050604061251c8682870161245d565b9150509250925092565b6000806000806080858703121561253c57600080fd5b600061254a878288016123b5565b945050602061255b878288016123b5565b935050604061256c8782880161245d565b925050606085013567ffffffffffffffff81111561258957600080fd5b61259587828801612409565b91505092959194509250565b600080604083850312156125b457600080fd5b60006125c2858286016123b5565b92505060206125d3858286016123ca565b9150509250929050565b600080604083850312156125f057600080fd5b60006125fe858286016123b5565b925050602061260f8582860161245d565b9150509250929050565b60006020828403121561262b57600080fd5b6000612639848285016123df565b91505092915050565b60006020828403121561265457600080fd5b6000612662848285016123f4565b91505092915050565b60006020828403121561267d57600080fd5b600061268b8482850161245d565b91505092915050565b600080604083850312156126a757600080fd5b60006126b58582860161245d565b925050602083013567ffffffffffffffff8111156126d257600080fd5b6126de85828601612433565b9150509250929050565b6126f181613210565b82525050565b61270081613222565b82525050565b6000612711826130b8565b61271b81856130ce565b935061272b818560208601613293565b6127348161345f565b840191505092915050565b600061274a826130c3565b61275481856130df565b9350612764818560208601613293565b61276d8161345f565b840191505092915050565b6000612783826130c3565b61278d81856130f0565b935061279d818560208601613293565b80840191505092915050565b600081546127b6816132c6565b6127c081866130f0565b945060018216600081146127db57600181146127ec5761281f565b60ff1983168652818601935061281f565b6127f5856130a3565b60005b83811015612817578154818901526001820191506020810190506127f8565b838801955050505b50505092915050565b60006128356025836130f0565b915061284082613470565b602582019050919050565b60006128586009836130f0565b9150612863826134bf565b600982019050919050565b600061287b6032836130df565b9150612886826134e8565b604082019050919050565b600061289e6025836130df565b91506128a982613537565b604082019050919050565b60006128c1601c836130df565b91506128cc82613586565b602082019050919050565b60006128e46005836130f0565b91506128ef826135af565b600582019050919050565b60006129076024836130df565b9150612912826135d8565b604082019050919050565b600061292a6019836130df565b915061293582613627565b602082019050919050565b600061294d602c836130df565b915061295882613650565b604082019050919050565b6000612970600d836130f0565b915061297b8261369f565b600d82019050919050565b60006129936038836130df565b915061299e826136c8565b604082019050919050565b60006129b6602a836130df565b91506129c182613717565b604082019050919050565b60006129d96029836130df565b91506129e482613766565b604082019050919050565b60006129fc602e836130df565b9150612a07826137b5565b604082019050919050565b6000612a1f6006836130f0565b9150612a2a82613804565b600682019050919050565b6000612a426002836130f0565b9150612a4d8261382d565b600282019050919050565b6000612a656020836130df565b9150612a7082613856565b602082019050919050565b6000612a886031836130df565b9150612a938261387f565b604082019050919050565b6000612aab602c836130df565b9150612ab6826138ce565b604082019050919050565b6000612ace602f836130df565b9150612ad98261391d565b604082019050919050565b6000612af16021836130df565b9150612afc8261396c565b604082019050919050565b6000612b146040836130f0565b9150612b1f826139bb565b604082019050919050565b6000612b376006836130f0565b9150612b4282613a0a565b600682019050919050565b6000612b5a601d836130f0565b9150612b6582613a33565b601d82019050919050565b6000612b7d6031836130df565b9150612b8882613a5c565b604082019050919050565b612b9c8161327a565b82525050565b6000612bae8284612778565b915081905092915050565b6000612bc58285612778565b9150612bd18284612778565b91508190509392505050565b6000612be98286612778565b9150612bf58285612778565b9150612c018284612778565b9150819050949350505050565b6000612c1a82876127a9565b9150612c268286612778565b9150612c328285612778565b9150612c3e8284612778565b9150612c4982612963565b915081905095945050505050565b6000612c6282612828565b9150612c6e8284612778565b915081905092915050565b6000612c848261284b565b9150612c908285612778565b9150612c9b82612b07565b9150612ca78284612778565b9150612cb282612a35565b91508190509392505050565b6000612cc9826128d7565b9150819050919050565b6000612cde82612a12565b9150819050919050565b6000612cf382612b2a565b9150819050919050565b6000612d0882612b4d565b9150612d148284612778565b915081905092915050565b6000602082019050612d3460008301846126e8565b92915050565b6000608082019050612d4f60008301876126e8565b612d5c60208301866126e8565b612d696040830185612b93565b8181036060830152612d7b8184612706565b905095945050505050565b6000602082019050612d9b60008301846126f7565b92915050565b60006020820190508181036000830152612dbb818461273f565b905092915050565b60006060820190508181036000830152612ddd818661273f565b9050612dec6020830185612b93565b612df960408301846126e8565b949350505050565b60006020820190508181036000830152612e1a8161286e565b9050919050565b60006020820190508181036000830152612e3a81612891565b9050919050565b60006020820190508181036000830152612e5a816128b4565b9050919050565b60006020820190508181036000830152612e7a816128fa565b9050919050565b60006020820190508181036000830152612e9a8161291d565b9050919050565b60006020820190508181036000830152612eba81612940565b9050919050565b60006020820190508181036000830152612eda81612986565b9050919050565b60006020820190508181036000830152612efa816129a9565b9050919050565b60006020820190508181036000830152612f1a816129cc565b9050919050565b60006020820190508181036000830152612f3a816129ef565b9050919050565b60006020820190508181036000830152612f5a81612a58565b9050919050565b60006020820190508181036000830152612f7a81612a7b565b9050919050565b60006020820190508181036000830152612f9a81612a9e565b9050919050565b60006020820190508181036000830152612fba81612ac1565b9050919050565b60006020820190508181036000830152612fda81612ae4565b9050919050565b60006020820190508181036000830152612ffa81612b70565b9050919050565b60006020820190506130166000830184612b93565b92915050565b6000613026613037565b905061303282826132f8565b919050565b6000604051905090565b600067ffffffffffffffff82111561305c5761305b613430565b5b6130658261345f565b9050602081019050919050565b600067ffffffffffffffff82111561308d5761308c613430565b5b6130968261345f565b9050602081019050919050565b60008190508160005260206000209050919050565b600081519050919050565b600081519050919050565b600082825260208201905092915050565b600082825260208201905092915050565b600081905092915050565b60006131068261327a565b91506131118361327a565b9250827fffffffffffffffffffffffffffffffffffffffffffffffffffffffffffffffff03821115613146576131456133a3565b5b828201905092915050565b600061315c8261327a565b91506131678361327a565b925082613177576131766133d2565b5b828204905092915050565b600061318d8261327a565b91506131988361327a565b9250817fffffffffffffffffffffffffffffffffffffffffffffffffffffffffffffffff04831182151516156131d1576131d06133a3565b5b828202905092915050565b60006131e78261327a565b91506131f28361327a565b925082821015613205576132046133a3565b5b828203905092915050565b600061321b8261325a565b9050919050565b60008115159050919050565b60007fffffffff0000000000000000000000000000000000000000000000000000000082169050919050565b600073ffffffffffffffffffffffffffffffffffffffff82169050919050565b6000819050919050565b82818337600083830152505050565b60005b838110156132b1578082015181840152602081019050613296565b838111156132c0576000848401525b50505050565b600060028204905060018216806132de57607f821691505b602082108114156132f2576132f1613401565b5b50919050565b6133018261345f565b810181811067ffffffffffffffff821117156133205761331f613430565b5b80604052505050565b60006133348261327a565b91507fffffffffffffffffffffffffffffffffffffffffffffffffffffffffffffffff821415613367576133666133a3565b5b600182019050919050565b600061337d8261327a565b91506133888361327a565b925082613398576133976133d2565b5b828206905092915050565b7f4e487b7100000000000000000000000000000000000000000000000000000000600052601160045260246000fd5b7f4e487b7100000000000000000000000000000000000000000000000000000000600052601260045260246000fd5b7f4e487b7100000000000000000000000000000000000000000000000000000000600052602260045260246000fd5b7f4e487b7100000000000000000000000000000000000000000000000000000000600052604160045260246000fd5b6000601f19601f8301169050919050565b7f68747470733a2f2f6e6674707265766965772e30786465762e636f6465732f3f60008201527f636f64653d000000000000000000000000000000000000000000000000000000602082015250565b7f7b226e616d65223a220000000000000000000000000000000000000000000000600082015250565b7f4552433732313a207472616e7366657220746f206e6f6e20455243373231526560008201527f63656976657220696d706c656d656e7465720000000000000000000000000000602082015250565b7f4552433732313a207472616e736665722066726f6d20696e636f72726563742060008201527f6f776e6572000000000000000000000000000000000000000000000000000000602082015250565b7f4552433732313a20746f6b656e20616c7265616479206d696e74656400000000600082015250565b7f4649525354000000000000000000000000000000000000000000000000000000600082015250565b7f4552433732313a207472616e7366657220746f20746865207a65726f2061646460008201527f7265737300000000000000000000000000000000000000000000000000000000602082015250565b7f4552433732313a20617070726f766520746f2063616c6c657200000000000000600082015250565b7f4552433732313a206f70657261746f7220717565727920666f72206e6f6e657860008201527f697374656e7420746f6b656e0000000000000000000000000000000000000000602082015250565b7f3c2f746578743e3c2f7376673e00000000000000000000000000000000000000600082015250565b7f4552433732313a20617070726f76652063616c6c6572206973206e6f74206f7760008201527f6e6572206e6f7220617070726f76656420666f7220616c6c0000000000000000602082015250565b7f4552433732313a2062616c616e636520717565727920666f7220746865207a6560008201527f726f206164647265737300000000000000000000000000000000000000000000602082015250565b7f4552433732313a206f776e657220717565727920666f72206e6f6e657869737460008201527f656e7420746f6b656e0000000000000000000000000000000000000000000000602082015250565b7f45524337323155524953746f726167653a2055524920736574206f66206e6f6e60008201527f6578697374656e7420746f6b656e000000000000000000000000000000000000602082015250565b7f5345434f4e440000000000000000000000000000000000000000000000000000600082015250565b7f227d000000000000000000000000000000000000000000000000000000000000600082015250565b7f4552433732313a206d696e7420746f20746865207a65726f2061646472657373600082015250565b7f45524337323155524953746f726167653a2055524920717565727920666f722060008201527f6e6f6e6578697374656e7420746f6b656e000000000000000000000000000000602082015250565b7f4552433732313a20617070726f76656420717565727920666f72206e6f6e657860008201527f697374656e7420746f6b656e0000000000000000000000000000000000000000602082015250565b7f4552433732314d657461646174613a2055524920717565727920666f72206e6f60008201527f6e6578697374656e7420746f6b656e0000000000000000000000000000000000602082015250565b7f4552433732313a20617070726f76616c20746f2063757272656e74206f776e6560008201527f7200000000000000000000000000000000000000000000000000000000000000602082015250565b7f222c226465736372697074696f6e223a20224e4557204e4654222c2022696d6160008201527f6765223a2022646174613a696d6167652f7376672b786d6c3b6261736536342c602082015250565b7f5448495245440000000000000000000000000000000000000000000000000000600082015250565b7f646174613a6170706c69636174696f6e2f6a736f6e3b6261736536342c000000600082015250565b7f4552433732313a207472616e736665722063616c6c6572206973206e6f74206f60008201527f776e6572206e6f7220617070726f766564000000000000000000000000000000602082015250565b613ab481613210565b8114613abf57600080fd5b50565b613acb81613222565b8114613ad657600080fd5b50565b613ae28161322e565b8114613aed57600080fd5b50565b613af98161327a565b8114613b0457600080fd5b5056fe4142434445464748494a4b4c4d4e4f505152535455565758595a6162636465666768696a6b6c6d6e6f707172737475767778797a303132333435363738392b2fa2646970667358221220f9f6e7a7e6f26498aad3d6a73d96eeb8ffb1afb0ce4d2e8419d95a8169d3fb4164736f6c634300080100333c73766720786d6c6e733d27687474703a2f2f7777772e77332e6f72672f323030302f73766727207072657365727665417370656374526174696f3d27784d696e594d696e206d656574272076696577426f783d273020302033353020333530273e3c7374796c653e2e62617365207b2066696c6c3a2077686974653b20666f6e742d66616d696c793a2073657269663b20666f6e742d73697a653a20323470783b207d3c2f7374796c653e3c726563742077696474683d273130302527206865696768743d2731303025272066696c6c3d27626c61636b27202f3e3c7465787420783d273530252720793d273530252720636c6173733d27626173652720646f6d696e616e742d626173656c696e653d276d6964646c652720746578742d616e63686f723d276d6964646c65273e",
  "linkReferences": {},
  "deployedLinkReferences": {}
}